{
  "abi": [
    {
      "type": "constructor",
      "inputs": [
        {
          "name": "_initialOwner",
          "type": "address",
          "internalType": "address"
        },
        {
          "name": "_registry",
          "type": "address",
          "internalType": "address"
        },
        {
          "name": "_functionsRouter",
          "type": "address",
          "internalType": "address"
        },
        {
          "name": "_donId",
          "type": "bytes32",
          "internalType": "bytes32"
        },
        {
          "name": "_subscriptionId",
          "type": "uint64",
          "internalType": "uint64"
        },
        {
          "name": "_automationRegistry",
          "type": "address",
          "internalType": "address"
        }
      ],
      "stateMutability": "nonpayable"
    },
    {
      "type": "function",
      "name": "automationRegistry",
      "inputs": [],
      "outputs": [
        {
          "name": "",
          "type": "address",
          "internalType": "address"
        }
      ],
      "stateMutability": "view"
    },
    {
      "type": "function",
      "name": "available",
      "inputs": [
        {
          "name": "fullDomain",
          "type": "string",
          "internalType": "string"
        }
      ],
      "outputs": [
        {
          "name": "",
          "type": "bool",
          "internalType": "bool"
        }
      ],
      "stateMutability": "view"
    },
    {
      "type": "function",
      "name": "checkLog",
      "inputs": [
        {
          "name": "log",
          "type": "tuple",
          "internalType": "struct Log",
          "components": [
            {
              "name": "index",
              "type": "uint256",
              "internalType": "uint256"
            },
            {
              "name": "timestamp",
              "type": "uint256",
              "internalType": "uint256"
            },
            {
              "name": "txHash",
              "type": "bytes32",
              "internalType": "bytes32"
            },
            {
              "name": "blockNumber",
              "type": "uint256",
              "internalType": "uint256"
            },
            {
              "name": "blockHash",
              "type": "bytes32",
              "internalType": "bytes32"
            },
            {
              "name": "source",
              "type": "address",
              "internalType": "address"
            },
            {
              "name": "topics",
              "type": "bytes32[]",
              "internalType": "bytes32[]"
            },
            {
              "name": "data",
              "type": "bytes",
              "internalType": "bytes"
            }
          ]
        },
        {
          "name": "checkData",
          "type": "bytes",
          "internalType": "bytes"
        }
      ],
      "outputs": [
        {
          "name": "upkeepNeeded",
          "type": "bool",
          "internalType": "bool"
        },
        {
          "name": "performData",
          "type": "bytes",
          "internalType": "bytes"
        }
      ],
      "stateMutability": "nonpayable"
    },
    {
      "type": "function",
      "name": "coinType",
      "inputs": [],
      "outputs": [
        {
          "name": "",
          "type": "uint256",
          "internalType": "uint256"
        }
      ],
      "stateMutability": "view"
    },
    {
      "type": "function",
      "name": "domainVerified",
      "inputs": [
        {
          "name": "",
          "type": "string",
          "internalType": "string"
        }
      ],
      "outputs": [
        {
          "name": "",
          "type": "bool",
          "internalType": "bool"
        }
      ],
      "stateMutability": "view"
    },
    {
      "type": "function",
      "name": "donId",
      "inputs": [],
      "outputs": [
        {
          "name": "",
          "type": "bytes32",
          "internalType": "bytes32"
        }
      ],
      "stateMutability": "view"
    },
    {
      "type": "function",
      "name": "gasLimit",
      "inputs": [],
      "outputs": [
        {
          "name": "",
          "type": "uint32",
          "internalType": "uint32"
        }
      ],
      "stateMutability": "view"
    },
    {
      "type": "function",
      "name": "getRegistration",
      "inputs": [
        {
          "name": "fullDomain",
          "type": "string",
          "internalType": "string"
        }
      ],
      "outputs": [
        {
          "name": "owner",
          "type": "address",
          "internalType": "address"
        },
        {
          "name": "registrationTime",
          "type": "uint256",
          "internalType": "uint256"
        },
        {
          "name": "verified",
          "type": "bool",
          "internalType": "bool"
        }
      ],
      "stateMutability": "view"
    },
    {
      "type": "function",
      "name": "handleOracleFulfillment",
      "inputs": [
        {
          "name": "requestId",
          "type": "bytes32",
          "internalType": "bytes32"
        },
        {
          "name": "response",
          "type": "bytes",
          "internalType": "bytes"
        },
        {
          "name": "err",
          "type": "bytes",
          "internalType": "bytes"
        }
      ],
      "outputs": [],
      "stateMutability": "nonpayable"
    },
    {
      "type": "function",
      "name": "onERC721Received",
      "inputs": [
        {
          "name": "",
          "type": "address",
          "internalType": "address"
        },
        {
          "name": "",
          "type": "address",
          "internalType": "address"
        },
        {
          "name": "",
          "type": "uint256",
          "internalType": "uint256"
        },
        {
          "name": "",
          "type": "bytes",
          "internalType": "bytes"
        }
      ],
      "outputs": [
        {
          "name": "",
          "type": "bytes4",
          "internalType": "bytes4"
        }
      ],
      "stateMutability": "nonpayable"
    },
    {
      "type": "function",
      "name": "owner",
      "inputs": [],
      "outputs": [
        {
          "name": "",
          "type": "address",
          "internalType": "address"
        }
      ],
      "stateMutability": "view"
    },
    {
      "type": "function",
      "name": "pendingRegistrations",
      "inputs": [
        {
          "name": "",
          "type": "bytes32",
          "internalType": "bytes32"
        }
      ],
      "outputs": [
        {
          "name": "fullDomain",
          "type": "string",
          "internalType": "string"
        },
        {
          "name": "requester",
          "type": "address",
          "internalType": "address"
        }
      ],
      "stateMutability": "view"
    },
    {
      "type": "function",
      "name": "performUpkeep",
      "inputs": [
        {
          "name": "performData",
          "type": "bytes",
          "internalType": "bytes"
        }
      ],
      "outputs": [],
      "stateMutability": "nonpayable"
    },
    {
      "type": "function",
      "name": "registrations",
      "inputs": [
        {
          "name": "",
          "type": "bytes32",
          "internalType": "bytes32"
        }
      ],
      "outputs": [
        {
          "name": "owner",
          "type": "address",
          "internalType": "address"
        },
        {
          "name": "fullDomain",
          "type": "string",
          "internalType": "string"
        },
        {
          "name": "registrationTime",
          "type": "uint256",
          "internalType": "uint256"
        },
        {
          "name": "verified",
          "type": "bool",
          "internalType": "bool"
        }
      ],
      "stateMutability": "view"
    },
    {
      "type": "function",
      "name": "registry",
      "inputs": [],
      "outputs": [
        {
          "name": "",
          "type": "address",
          "internalType": "contract IL2Registry"
        }
      ],
      "stateMutability": "view"
    },
    {
      "type": "function",
      "name": "renounceOwnership",
      "inputs": [],
      "outputs": [],
      "stateMutability": "nonpayable"
    },
    {
      "type": "function",
      "name": "requestRegistration",
      "inputs": [
        {
          "name": "fullDomain",
          "type": "string",
          "internalType": "string"
        }
      ],
      "outputs": [],
      "stateMutability": "nonpayable"
    },
    {
      "type": "function",
      "name": "subscriptionId",
      "inputs": [],
      "outputs": [
        {
          "name": "",
          "type": "uint64",
          "internalType": "uint64"
        }
      ],
      "stateMutability": "view"
    },
    {
      "type": "function",
      "name": "transferDomain",
      "inputs": [
        {
          "name": "fullDomain",
          "type": "string",
          "internalType": "string"
        },
        {
          "name": "newOwner",
          "type": "address",
          "internalType": "address"
        }
      ],
      "outputs": [],
      "stateMutability": "nonpayable"
    },
    {
      "type": "function",
      "name": "transferOwnership",
      "inputs": [
        {
          "name": "newOwner",
          "type": "address",
          "internalType": "address"
        }
      ],
      "outputs": [],
      "stateMutability": "nonpayable"
    },
    {
      "type": "function",
      "name": "updateChainlinkConfig",
      "inputs": [
        {
          "name": "_donId",
          "type": "bytes32",
          "internalType": "bytes32"
        },
        {
          "name": "_subscriptionId",
          "type": "uint64",
          "internalType": "uint64"
        },
        {
          "name": "_gasLimit",
          "type": "uint32",
          "internalType": "uint32"
        }
      ],
      "outputs": [],
      "stateMutability": "nonpayable"
    },
    {
      "type": "event",
      "name": "DomainRegistered",
      "inputs": [
        {
          "name": "fullDomain",
          "type": "string",
          "indexed": false,
          "internalType": "string"
        },
        {
          "name": "owner",
          "type": "address",
          "indexed": false,
          "internalType": "address"
        }
      ],
      "anonymous": false
    },
    {
      "type": "event",
      "name": "DomainVerificationRequested",
      "inputs": [
        {
          "name": "fullDomain",
          "type": "string",
          "indexed": false,
          "internalType": "string"
        },
        {
          "name": "requester",
          "type": "address",
          "indexed": false,
          "internalType": "address"
        },
        {
          "name": "requestId",
          "type": "bytes32",
          "indexed": false,
          "internalType": "bytes32"
        }
      ],
      "anonymous": false
    },
    {
      "type": "event",
      "name": "DomainVerified",
      "inputs": [
        {
          "name": "requestId",
          "type": "bytes32",
          "indexed": true,
          "internalType": "bytes32"
        }
      ],
      "anonymous": false
    },
    {
      "type": "event",
      "name": "NameRegistered",
      "inputs": [
        {
          "name": "label",
          "type": "string",
          "indexed": true,
          "internalType": "string"
        },
        {
          "name": "node",
          "type": "bytes32",
          "indexed": true,
          "internalType": "bytes32"
        },
        {
          "name": "owner",
          "type": "address",
          "indexed": true,
          "internalType": "address"
        }
      ],
      "anonymous": false
    },
    {
      "type": "event",
      "name": "OwnershipTransferred",
      "inputs": [
        {
          "name": "previousOwner",
          "type": "address",
          "indexed": true,
          "internalType": "address"
        },
        {
          "name": "newOwner",
          "type": "address",
          "indexed": true,
          "internalType": "address"
        }
      ],
      "anonymous": false
    },
    {
      "type": "event",
      "name": "RequestFulfilled",
      "inputs": [
        {
          "name": "id",
          "type": "bytes32",
          "indexed": true,
          "internalType": "bytes32"
        }
      ],
      "anonymous": false
    },
    {
      "type": "event",
      "name": "RequestSent",
      "inputs": [
        {
          "name": "id",
          "type": "bytes32",
          "indexed": true,
          "internalType": "bytes32"
        }
      ],
      "anonymous": false
    },
    {
      "type": "error",
      "name": "EmptyArgs",
      "inputs": []
    },
    {
      "type": "error",
      "name": "EmptySource",
      "inputs": []
    },
    {
      "type": "error",
      "name": "NoInlineSecrets",
      "inputs": []
    },
    {
      "type": "error",
      "name": "OnlyRouterCanFulfill",
      "inputs": []
    },
    {
      "type": "error",
      "name": "OwnableInvalidOwner",
      "inputs": [
        {
          "name": "owner",
          "type": "address",
          "internalType": "address"
        }
      ]
    },
    {
      "type": "error",
      "name": "OwnableUnauthorizedAccount",
      "inputs": [
        {
          "name": "account",
          "type": "address",
          "internalType": "address"
        }
      ]
    },
    {
      "type": "error",
      "name": "Registrar__DomainNotAvailable",
      "inputs": []
    },
    {
      "type": "error",
      "name": "Registrar__InvalidAddress",
      "inputs": []
    },
    {
      "type": "error",
      "name": "Registrar__InvalidDomain",
      "inputs": []
    },
    {
      "type": "error",
      "name": "Registrar__NotOwner",
      "inputs": []
    },
    {
      "type": "error",
      "name": "StringsInsufficientHexLength",
      "inputs": [
        {
          "name": "value",
          "type": "uint256",
          "internalType": "uint256"
        },
        {
          "name": "length",
          "type": "uint256",
          "internalType": "uint256"
        }
      ]
    }
  ],
  "bytecode": {
    "object": "0x60e0604052620493e060025f6101000a81548163ffffffff021916908363ffffffff160217905550348015610032575f5ffd5b50604051614f57380380614f5783398181016040528101906100549190610357565b83865f73ffffffffffffffffffffffffffffffffffffffff168173ffffffffffffffffffffffffffffffffffffffff16036100c6575f6040517f1e4fbdf70000000000000000000000000000000000000000000000000000000081526004016100bd91906103ef565b60405180910390fd5b6100d5816101c860201b60201c565b508073ffffffffffffffffffffffffffffffffffffffff1660808173ffffffffffffffffffffffffffffffffffffffff1681525050504663800000001760c081815250508473ffffffffffffffffffffffffffffffffffffffff1660a08173ffffffffffffffffffffffffffffffffffffffff168152505082600181905550815f60146101000a81548167ffffffffffffffff021916908367ffffffffffffffff16021790555080600260046101000a81548173ffffffffffffffffffffffffffffffffffffffff021916908373ffffffffffffffffffffffffffffffffffffffff160217905550505050505050610408565b5f5f5f9054906101000a900473ffffffffffffffffffffffffffffffffffffffff169050815f5f6101000a81548173ffffffffffffffffffffffffffffffffffffffff021916908373ffffffffffffffffffffffffffffffffffffffff1602179055508173ffffffffffffffffffffffffffffffffffffffff168173ffffffffffffffffffffffffffffffffffffffff167f8be0079c531659141344cd1fd0a4f28419497f9722a3daafe3b4186f6b6457e060405160405180910390a35050565b5f5ffd5b5f73ffffffffffffffffffffffffffffffffffffffff82169050919050565b5f6102b68261028d565b9050919050565b6102c6816102ac565b81146102d0575f5ffd5b50565b5f815190506102e1816102bd565b92915050565b5f819050919050565b6102f9816102e7565b8114610303575f5ffd5b50565b5f81519050610314816102f0565b92915050565b5f67ffffffffffffffff82169050919050565b6103368161031a565b8114610340575f5ffd5b50565b5f815190506103518161032d565b92915050565b5f5f5f5f5f5f60c0878903121561037157610370610289565b5b5f61037e89828a016102d3565b965050602061038f89828a016102d3565b95505060406103a089828a016102d3565b94505060606103b189828a01610306565b93505060806103c289828a01610343565b92505060a06103d389828a016102d3565b9150509295509295509295565b6103e9816102ac565b82525050565b5f6020820190506104025f8301846103e0565b92915050565b60805160a05160c051614ad16104865f395f81816107340152611e8d01525f818161065f01528181610d3301528181611927015281816119c401528181611b2b01528181611bf301528181611c9d01528181611dc501528181611e5001528181612025015261220601525f818161042f01526129540152614ad15ff3fe608060405234801561000f575f5ffd5b5060043610610135575f3560e01c80635dc228a0116100b6578063a00977bf1161007a578063a00977bf1461032a578063aeb8ce9b14610346578063c390d86414610376578063da7c6a42146103a7578063f2fde38b146103da578063f68016b7146103f657610135565b80635dc228a0146102a8578063715018a6146102c65780637b103999146102d05780638da5cb5b146102ee5780638dbe7b9d1461030c57610135565b806326031624116100fd57806326031624146101dd578063393f596e1461020d57806340691db4146102295780634585e33b1461025a578063483b812c1461027657610135565b806309c1ba2e146101395780630ca7617514610157578063150b7a021461017357806319fbe87e146101a35780631fe93ea8146101bf575b5f5ffd5b610141610414565b60405161014e91906131ef565b60405180910390f35b610171600480360381019061016c9190613388565b61042d565b005b61018d6004803603810190610188919061349d565b6104ef565b60405161019a9190613557565b60405180910390f35b6101bd60048036038101906101b891906135cd565b610502565b005b6101c7610732565b6040516101d49190613639565b60405180910390f35b6101f760048036038101906101f291906136f0565b610756565b6040516102049190613751565b60405180910390f35b610227600480360381019061022291906137cd565b61078b565b005b610243600480360381019061023e9190613840565b6107e7565b604051610251929190613916565b60405180910390f35b610274600480360381019061026f9190613999565b61083f565b005b610290600480360381019061028b91906139e4565b610b55565b60405161029f93929190613a3e565b60405180910390f35b6102b0610cf8565b6040516102bd9190613a73565b60405180910390f35b6102ce610d1e565b005b6102d8610d31565b6040516102e59190613ae7565b60405180910390f35b6102f6610d55565b6040516103039190613a73565b60405180910390f35b610314610d7c565b6040516103219190613b0f565b60405180910390f35b610344600480360381019061033f91906139e4565b610d82565b005b610360600480360381019061035b91906139e4565b611141565b60405161036d9190613751565b60405180910390f35b610390600480360381019061038b9190613b28565b6111c2565b60405161039e929190613ba5565b60405180910390f35b6103c160048036038101906103bc9190613b28565b611288565b6040516103d19493929190613bd3565b60405180910390f35b6103f460048036038101906103ef9190613c1d565b611365565b005b6103fe6113e9565b60405161040b9190613c57565b60405180910390f35b5f60149054906101000a900467ffffffffffffffff1681565b7f000000000000000000000000000000000000000000000000000000000000000073ffffffffffffffffffffffffffffffffffffffff163373ffffffffffffffffffffffffffffffffffffffff16146104b2576040517fc6829f8300000000000000000000000000000000000000000000000000000000815260040160405180910390fd5b6104bd8383836113fe565b827f85e1543bf2f84fe80c6badbce3648c8539ad1df4d2b3d822938ca0538be727e660405160405180910390a2505050565b5f63150b7a0260e01b9050949350505050565b5f73ffffffffffffffffffffffffffffffffffffffff168173ffffffffffffffffffffffffffffffffffffffff1603610567576040517f9e817da300000000000000000000000000000000000000000000000000000000815260040160405180910390fd5b5f6105b484848080601f0160208091040260200160405190810160405280939291908181526020018383808284375f81840152601f19601f8201169050808301925050505050505061167d565b90505f6105c082611923565b90505f60035f8381526020019081526020015f2090503373ffffffffffffffffffffffffffffffffffffffff16815f015f9054906101000a900473ffffffffffffffffffffffffffffffffffffffff1673ffffffffffffffffffffffffffffffffffffffff161461065d576040517f3519fff400000000000000000000000000000000000000000000000000000000815260040160405180910390fd5b7f000000000000000000000000000000000000000000000000000000000000000073ffffffffffffffffffffffffffffffffffffffff166323b872dd3386855f1c6040518463ffffffff1660e01b81526004016106bc93929190613c70565b5f604051808303815f87803b1580156106d3575f5ffd5b505af11580156106e5573d5f5f3e3d5ffd5b5050505083815f015f6101000a81548173ffffffffffffffffffffffffffffffffffffffff021916908373ffffffffffffffffffffffffffffffffffffffff160217905550505050505050565b7f000000000000000000000000000000000000000000000000000000000000000081565b6005818051602081018201805184825260208301602085012081835280955050505050505f915054906101000a900460ff1681565b610793611aa1565b82600181905550815f60146101000a81548167ffffffffffffffff021916908367ffffffffffffffff1602179055508060025f6101000a81548163ffffffff021916908363ffffffff160217905550505050565b5f60606001848060c001906107fc9190613cb1565b600181811061080e5761080d613d13565b5b905060200201356040516020016108259190613b0f565b604051602081830303815290604052915091509250929050565b5f828281019061084f9190613b28565b90505f60045f8381526020019081526020015f206040518060600160405290815f8201805480602002602001604051908101604052809291908181526020015f905b82821015610939578382905f5260205f200180546108ae90613d6d565b80601f01602080910402602001604051908101604052809291908181526020018280546108da90613d6d565b80156109255780601f106108fc57610100808354040283529160200191610925565b820191905f5260205f20905b81548152906001019060200180831161090857829003601f168201915b505050505081526020019060010190610891565b50505050815260200160018201805461095190613d6d565b80601f016020809104026020016040519081016040528092919081815260200182805461097d90613d6d565b80156109c85780601f1061099f576101008083540402835291602001916109c8565b820191905f5260205f20905b8154815290600101906020018083116109ab57829003601f168201915b50505050508152602001600282015f9054906101000a900473ffffffffffffffffffffffffffffffffffffffff1673ffffffffffffffffffffffffffffffffffffffff1673ffffffffffffffffffffffffffffffffffffffff168152505090505f73ffffffffffffffffffffffffffffffffffffffff16816040015173ffffffffffffffffffffffffffffffffffffffff1603610a66575050610b51565b600160058260200151604051610a7c9190613dd7565b90815260200160405180910390205f6101000a81548160ff021916908315150217905550610ab6815f015182602001518360400151611b28565b7f70f2ff07e8136617cdfb0433423063c9dd697c507560d7860cce09fa86874a1281602001518260400151604051610aef929190613ba5565b60405180910390a160045f8381526020019081526020015f205f5f82015f610b179190613036565b600182015f610b269190613054565b600282015f6101000a81549073ffffffffffffffffffffffffffffffffffffffff0219169055505050505b5050565b5f5f5f5f610ba586868080601f0160208091040260200160405190810160405280939291908181526020018383808284375f81840152601f19601f8201169050808301925050505050505061167d565b90505f610bb182611923565b90505f60035f8381526020019081526020015f206040518060800160405290815f82015f9054906101000a900473ffffffffffffffffffffffffffffffffffffffff1673ffffffffffffffffffffffffffffffffffffffff1673ffffffffffffffffffffffffffffffffffffffff168152602001600182018054610c3490613d6d565b80601f0160208091040260200160405190810160405280929190818152602001828054610c6090613d6d565b8015610cab5780601f10610c8257610100808354040283529160200191610cab565b820191905f5260205f20905b815481529060010190602001808311610c8e57829003601f168201915b5050505050815260200160028201548152602001600382015f9054906101000a900460ff1615151515815250509050805f0151816040015182606001519550955095505050509250925092565b600260049054906101000a900473ffffffffffffffffffffffffffffffffffffffff1681565b610d26611aa1565b610d2f5f61213c565b565b7f000000000000000000000000000000000000000000000000000000000000000081565b5f5f5f9054906101000a900473ffffffffffffffffffffffffffffffffffffffff16905090565b60015481565b5f8282905003610dbe576040517fb371a81000000000000000000000000000000000000000000000000000000000815260040160405180910390fd5b5f610e0b83838080601f0160208091040260200160405190810160405280939291908181526020018383808284375f81840152601f19601f8201169050808301925050505050505061167d565b90505f815103610e47576040517fb371a81000000000000000000000000000000000000000000000000000000000815260040160405180910390fd5b5f610e5182611923565b9050610e5c816121fd565b610e92576040517fe10c2f6a00000000000000000000000000000000000000000000000000000000815260040160405180910390fd5b610e9a613091565b610ebf81604051806102400160405280610201815260200161489b61020191396122b0565b5f600267ffffffffffffffff811115610edb57610eda613264565b5b604051908082528060200260200182016040528015610f0e57816020015b6060815260200190600190039081610ef95790505b50905085858080601f0160208091040260200160405190810160405280939291908181526020018383808284375f81840152601f19601f82011690508083019250505050505050815f81518110610f6857610f67613d13565b5b6020026020010181905250610f943373ffffffffffffffffffffffffffffffffffffffff1660146122c0565b81600181518110610fa857610fa7613d13565b5b6020026020010181905250610fbd82826124fe565b5f610ffa610fca84612545565b5f60149054906101000a900467ffffffffffffffff1660025f9054906101000a900463ffffffff16600154612950565b9050604051806060016040528086815260200188888080601f0160208091040260200160405190810160405280939291908181526020018383808284375f81840152601f19601f8201169050808301925050505050505081526020013373ffffffffffffffffffffffffffffffffffffffff1681525060045f8381526020019081526020015f205f820151815f01908051906020019061109b929190613100565b5060208201518160010190816110b19190613f84565b506040820151816002015f6101000a81548173ffffffffffffffffffffffffffffffffffffffff021916908373ffffffffffffffffffffffffffffffffffffffff1602179055509050507fb3e13864a976bbbed2ebc314f9f06a8b1d29f59bbc0a26cab8fff7f0991df87387873384604051611130949392919061407f565b60405180910390a150505050505050565b5f5f61118f84848080601f0160208091040260200160405190810160405280939291908181526020018383808284375f81840152601f19601f8201169050808301925050505050505061167d565b90505f8151036111a2575f9150506111bc565b5f6111ac82611923565b90506111b7816121fd565b925050505b92915050565b6004602052805f5260405f205f915090508060010180546111e290613d6d565b80601f016020809104026020016040519081016040528092919081815260200182805461120e90613d6d565b80156112595780601f1061123057610100808354040283529160200191611259565b820191905f5260205f20905b81548152906001019060200180831161123c57829003601f168201915b505050505090806002015f9054906101000a900473ffffffffffffffffffffffffffffffffffffffff16905082565b6003602052805f5260405f205f91509050805f015f9054906101000a900473ffffffffffffffffffffffffffffffffffffffff16908060010180546112cc90613d6d565b80601f01602080910402602001604051908101604052809291908181526020018280546112f890613d6d565b80156113435780601f1061131a57610100808354040283529160200191611343565b820191905f5260205f20905b81548152906001019060200180831161132657829003601f168201915b505050505090806002015490806003015f9054906101000a900460ff16905084565b61136d611aa1565b5f73ffffffffffffffffffffffffffffffffffffffff168173ffffffffffffffffffffffffffffffffffffffff16036113dd575f6040517f1e4fbdf70000000000000000000000000000000000000000000000000000000081526004016113d49190613a73565b60405180910390fd5b6113e68161213c565b50565b60025f9054906101000a900463ffffffff1681565b5f60045f8581526020019081526020015f206040518060600160405290815f8201805480602002602001604051908101604052809291908181526020015f905b828210156114e6578382905f5260205f2001805461145b90613d6d565b80601f016020809104026020016040519081016040528092919081815260200182805461148790613d6d565b80156114d25780601f106114a9576101008083540402835291602001916114d2565b820191905f5260205f20905b8154815290600101906020018083116114b557829003601f168201915b50505050508152602001906001019061143e565b5050505081526020016001820180546114fe90613d6d565b80601f016020809104026020016040519081016040528092919081815260200182805461152a90613d6d565b80156115755780601f1061154c57610100808354040283529160200191611575565b820191905f5260205f20905b81548152906001019060200180831161155857829003601f168201915b50505050508152602001600282015f9054906101000a900473ffffffffffffffffffffffffffffffffffffffff1673ffffffffffffffffffffffffffffffffffffffff1673ffffffffffffffffffffffffffffffffffffffff168152505090505f73ffffffffffffffffffffffffffffffffffffffff16816040015173ffffffffffffffffffffffffffffffffffffffff16036116125750611678565b5f5f835114801561162357505f8451115b1561163f578380602001905181019061163c91906140d1565b90505b6001810361167557847f686ecdfa72ff03cfaa41c602ea781bd3b84827ece78031664db202857477d36e60405160405180910390a25b50505b505050565b60605f8290505f600190505f5b8251811015611711577f2e000000000000000000000000000000000000000000000000000000000000008382815181106116c7576116c6613d13565b5b602001015160f81c60f81b7effffffffffffffffffffffffffffffffffffffffffffffffffffffffffffff191603611706578161170390614129565b91505b80600101905061168a565b505f8167ffffffffffffffff81111561172d5761172c613264565b5b60405190808252806020026020018201604052801561176057816020015b606081526020019060019003908161174b5790505b5090505f5f5f5b855181116119155785518114806117dc57507f2e000000000000000000000000000000000000000000000000000000000000008682815181106117ad576117ac613d13565b5b602001015160f81c60f81b7effffffffffffffffffffffffffffffffffffffffffffffffffffffffffffff1916145b1561190457818111156118f4575f82826117f69190614170565b67ffffffffffffffff81111561180f5761180e613264565b5b6040519080825280601f01601f1916602001820160405280156118415781602001600182028036833780820191505090505b5090505f8390505b828110156118c65787818151811061186457611863613d13565b5b602001015160f81c60f81b82858361187c9190614170565b8151811061188d5761188c613d13565b5b60200101907effffffffffffffffffffffffffffffffffffffffffffffffffffffffffffff191690815f1a905350806001019050611849565b50808585815181106118db576118da613d13565b5b6020026020010181905250836118f090614129565b9350505b60018161190191906141a3565b91505b8061190e90614129565b9050611767565b508295505050505050919050565b5f5f7f000000000000000000000000000000000000000000000000000000000000000073ffffffffffffffffffffffffffffffffffffffff1663ddf7fcb06040518163ffffffff1660e01b8152600401602060405180830381865afa15801561198e573d5f5f3e3d5ffd5b505050506040513d601f19601f820116820180604052508101906119b291906141ea565b90505f835190505b5f811115611a97577f000000000000000000000000000000000000000000000000000000000000000073ffffffffffffffffffffffffffffffffffffffff1663b0c3ade48386600185611a0d9190614170565b81518110611a1e57611a1d613d13565b5b60200260200101516040518363ffffffff1660e01b8152600401611a43929190614215565b602060405180830381865afa158015611a5e573d5f5f3e3d5ffd5b505050506040513d601f19601f82011682018060405250810190611a8291906141ea565b91508080611a8f90614243565b9150506119ba565b5080915050919050565b611aa9612a2f565b73ffffffffffffffffffffffffffffffffffffffff16611ac7610d55565b73ffffffffffffffffffffffffffffffffffffffff1614611b2657611aea612a2f565b6040517f118cdaa7000000000000000000000000000000000000000000000000000000008152600401611b1d9190613a73565b60405180910390fd5b565b5f7f000000000000000000000000000000000000000000000000000000000000000073ffffffffffffffffffffffffffffffffffffffff1663ddf7fcb06040518163ffffffff1660e01b8152600401602060405180830381865afa158015611b92573d5f5f3e3d5ffd5b505050506040513d601f19601f82011682018060405250810190611bb691906141ea565b90505f845190505b5f811115612135575f85600183611bd59190614170565b81518110611be657611be5613d13565b5b602002602001015190505f7f000000000000000000000000000000000000000000000000000000000000000073ffffffffffffffffffffffffffffffffffffffff1663b0c3ade485846040518363ffffffff1660e01b8152600401611c4c929190614215565b602060405180830381865afa158015611c67573d5f5f3e3d5ffd5b505050506040513d601f19601f82011682018060405250810190611c8b91906141ea565b9050611c96816121fd565b1561211c577f000000000000000000000000000000000000000000000000000000000000000073ffffffffffffffffffffffffffffffffffffffff16638bf9baba858460018714611ce75730611ce9565b885b5f67ffffffffffffffff811115611d0357611d02613264565b5b604051908082528060200260200182016040528015611d3657816020015b6060815260200190600190039081611d215790505b506040518563ffffffff1660e01b8152600401611d56949392919061436d565b6020604051808303815f875af1158015611d72573d5f5f3e3d5ffd5b505050506040513d601f19601f82011682018060405250810190611d9691906141ea565b9350600183036120ae575f85604051602001611db29190614403565b60405160208183030381529060405290507f000000000000000000000000000000000000000000000000000000000000000073ffffffffffffffffffffffffffffffffffffffff16638b95dd7186603c846040518463ffffffff1660e01b8152600401611e2193929190614456565b5f604051808303815f87803b158015611e38575f5ffd5b505af1158015611e4a573d5f5f3e3d5ffd5b505050507f000000000000000000000000000000000000000000000000000000000000000073ffffffffffffffffffffffffffffffffffffffff16638b95dd71867f0000000000000000000000000000000000000000000000000000000000000000846040518463ffffffff1660e01b8152600401611ecb93929190614492565b5f604051808303815f87803b158015611ee2575f5ffd5b505af1158015611ef4573d5f5f3e3d5ffd5b5050505060405180608001604052808773ffffffffffffffffffffffffffffffffffffffff1681526020018881526020014281526020016001151581525060035f8781526020019081526020015f205f820151815f015f6101000a81548173ffffffffffffffffffffffffffffffffffffffff021916908373ffffffffffffffffffffffffffffffffffffffff1602179055506020820151816001019081611f9c9190613f84565b50604082015181600201556060820151816003015f6101000a81548160ff0219169083151502179055509050505f6040518060400160405280601381526020017f68747470733a2f2f66617669636f6e2e69732f00000000000000000000000000815250886040516020016120129291906144ce565b60405160208183030381529060405290507f000000000000000000000000000000000000000000000000000000000000000073ffffffffffffffffffffffffffffffffffffffff166310f13a8c87836040518363ffffffff1660e01b815260040161207e92919061453b565b5f604051808303815f87803b158015612095575f5ffd5b505af11580156120a7573d5f5f3e3d5ffd5b5050505050505b600183146120bc57306120be565b845b73ffffffffffffffffffffffffffffffffffffffff1684836040516120e39190613dd7565b60405180910390207f949d23b49bd03f2681389f579003c80eeb63fea84d0c36204dab1be09378521660405160405180910390a4612120565b8093505b5050808061212d90614243565b915050611bbe565b5050505050565b5f5f5f9054906101000a900473ffffffffffffffffffffffffffffffffffffffff169050815f5f6101000a81548173ffffffffffffffffffffffffffffffffffffffff021916908373ffffffffffffffffffffffffffffffffffffffff1602179055508173ffffffffffffffffffffffffffffffffffffffff168173ffffffffffffffffffffffffffffffffffffffff167f8be0079c531659141344cd1fd0a4f28419497f9722a3daafe3b4186f6b6457e060405160405180910390a35050565b5f5f825f1c90507f000000000000000000000000000000000000000000000000000000000000000073ffffffffffffffffffffffffffffffffffffffff16636352211e826040518263ffffffff1660e01b815260040161225d9190613639565b602060405180830381865afa92505050801561229757506040513d601f19601f820116820180604052508101906122949190614590565b60015b6122a55760019150506122ab565b505f9150505b919050565b6122bc825f5f84612a36565b5050565b60605f8390505f60028460026122d691906145bb565b6122e091906141a3565b67ffffffffffffffff8111156122f9576122f8613264565b5b6040519080825280601f01601f19166020018201604052801561232b5781602001600182028036833780820191505090505b5090507f3000000000000000000000000000000000000000000000000000000000000000815f8151811061236257612361613d13565b5b60200101907effffffffffffffffffffffffffffffffffffffffffffffffffffffffffffff191690815f1a9053507f7800000000000000000000000000000000000000000000000000000000000000816001815181106123c5576123c4613d13565b5b60200101907effffffffffffffffffffffffffffffffffffffffffffffffffffffffffffff191690815f1a9053505f600185600261240391906145bb565b61240d91906141a3565b90505b60018111156124ac577f3031323334353637383961626364656600000000000000000000000000000000600f84166010811061244f5761244e613d13565b5b1a60f81b82828151811061246657612465613d13565b5b60200101907effffffffffffffffffffffffffffffffffffffffffffffffffffffffffffff191690815f1a905350600483901c9250806124a590614243565b9050612410565b505f82146124f35784846040517fe22e27eb0000000000000000000000000000000000000000000000000000000081526004016124ea9291906145fc565b60405180910390fd5b809250505092915050565b5f815103612538576040517ffe936cb700000000000000000000000000000000000000000000000000000000815260040160405180910390fd5b808260a001819052505050565b60605f612553610100612adc565b905061259d6040518060400160405280600c81526020017f636f64654c6f636174696f6e000000000000000000000000000000000000000081525082612b0190919063ffffffff16565b6125c5835f015160028111156125b6576125b5614623565b5b82612b2990919063ffffffff16565b61260d6040518060400160405280600881526020017f6c616e677561676500000000000000000000000000000000000000000000000081525082612b0190919063ffffffff16565b61263583604001515f81111561262657612625614623565b5b82612b2990919063ffffffff16565b61267d6040518060400160405280600681526020017f736f75726365000000000000000000000000000000000000000000000000000081525082612b0190919063ffffffff16565b612694836060015182612b0190919063ffffffff16565b5f8360a0015151111561274b576126e96040518060400160405280600481526020017f617267730000000000000000000000000000000000000000000000000000000081525082612b0190919063ffffffff16565b6126f281612b78565b5f5f90505b8360a0015151811015612740576127358460a00151828151811061271e5761271d613d13565b5b602002602001015183612b0190919063ffffffff16565b8060010190506126f7565b5061274a81612ba0565b5b5f836080015151111561288a575f600281111561276b5761276a614623565b5b8360200151600281111561278257612781614623565b5b036127b9576040517fa80d31f700000000000000000000000000000000000000000000000000000000815260040160405180910390fd5b6128016040518060400160405280600f81526020017f736563726574734c6f636174696f6e000000000000000000000000000000000081525082612b0190919063ffffffff16565b61282a8360200151600281111561281b5761281a614623565b5b82612b2990919063ffffffff16565b6128726040518060400160405280600781526020017f736563726574730000000000000000000000000000000000000000000000000081525082612b0190919063ffffffff16565b612889836080015182612bc890919063ffffffff16565b5b5f8360c00151511115612941576128df6040518060400160405280600981526020017f627974657341726773000000000000000000000000000000000000000000000081525082612b0190919063ffffffff16565b6128e881612b78565b5f5f90505b8360c00151518110156129365761292b8460c00151828151811061291457612913613d13565b5b602002602001015183612bc890919063ffffffff16565b8060010190506128ed565b5061294081612ba0565b5b805f01515f0151915050919050565b5f5f7f000000000000000000000000000000000000000000000000000000000000000073ffffffffffffffffffffffffffffffffffffffff1663461d27628688600188886040518663ffffffff1660e01b81526004016129b495949392919061466c565b6020604051808303815f875af11580156129d0573d5f5f3e3d5ffd5b505050506040513d601f19601f820116820180604052508101906129f491906141ea565b9050807f1131472297a800fee664d1d89cfa8f7676ff07189ecc53f80bbb5f4969099db860405160405180910390a280915050949350505050565b5f33905090565b5f815103612a70576040517f22ce3edd00000000000000000000000000000000000000000000000000000000815260040160405180910390fd5b82845f01906002811115612a8757612a86614623565b5b90816002811115612a9b57612a9a614623565b5b815250508184604001905f811115612ab657612ab5614623565b5b90815f811115612ac957612ac8614623565b5b8152505080846060018190525050505050565b612ae4613157565b612af1815f015183612bf0565b505f816020018181525050919050565b612b0e8260038351612c66565b612b2481835f0151612e0690919063ffffffff16565b505050565b612b4a60026005600660ff16901b17835f0151612e2290919063ffffffff16565b50612b748282604051602001612b609190613639565b604051602081830303815290604052612bc8565b5050565b612b83816004612e89565b600181602001818151612b9691906141a3565b9150818152505050565b612bab816007612e89565b600181602001818151612bbe9190614170565b9150818152505050565b612bd58260028351612c66565b612beb81835f0151612e0690919063ffffffff16565b505050565b612bf8613176565b5f602083612c0691906146f1565b14612c3257602082612c1891906146f1565b6020612c249190614170565b82612c2f91906141a3565b91505b818360200181815250506040518084525f815282810160200181811015612c57575f5ffd5b80604052505082905092915050565b60178167ffffffffffffffff1611612ca057612c9a8160058460ff16901b60ff1617845f0151612e2290919063ffffffff16565b50612e01565b60ff8167ffffffffffffffff1611612cfc57612cd2601860058460ff16901b17845f0151612e2290919063ffffffff16565b50612cf68167ffffffffffffffff166001855f0151612eae9092919063ffffffff16565b50612e00565b61ffff8167ffffffffffffffff1611612d5957612d2f601960058460ff16901b17845f0151612e2290919063ffffffff16565b50612d538167ffffffffffffffff166002855f0151612eae9092919063ffffffff16565b50612dff565b63ffffffff8167ffffffffffffffff1611612db857612d8e601a60058460ff16901b17845f0151612e2290919063ffffffff16565b50612db28167ffffffffffffffff166004855f0151612eae9092919063ffffffff16565b50612dfe565b612dd8601b60058460ff16901b17845f0151612e2290919063ffffffff16565b50612dfc8167ffffffffffffffff166008855f0151612eae9092919063ffffffff16565b505b5b5b5b505050565b612e0e613176565b612e1a83838451612f37565b905092915050565b612e2a613176565b5f835f01515190505f600182612e4091906141a3565b905084602001518210612e6457612e6385600283612e5e91906145bb565b613014565b5b84516020838201018581538151831115612e7c578282525b5050849250505092915050565b612ea9601f60058360ff16901b17835f0151612e2290919063ffffffff16565b505050565b612eb6613176565b5f845f01515190505f8184612ecb91906141a3565b90508560200151811115612ef057612eef86600283612eea91906145bb565b613014565b5b5f600185610100612f019190614850565b612f0b9190614170565b905086518281018783198251161781528151841115612f28578382525b50508693505050509392505050565b612f3f613176565b8251821115612f4c575f5ffd5b5f845f01515190505f8382612f6191906141a3565b90508560200151811115612f8657612f8586600283612f8091906145bb565b613014565b5b5f5f87518051856020830101935080851115612fa0578482525b60208901925050505b60208610612fe75780518252602082612fc291906141a3565b9150602081612fd191906141a3565b9050602086612fe09190614170565b9550612fa9565b5f6001876020036101000a0390508019825116818451168181178552505050879450505050509392505050565b5f825f015190506130258383612bf0565b506130308382612e06565b50505050565b5080545f8255905f5260205f2090810190613051919061318f565b50565b50805461306090613d6d565b5f825580601f10613071575061308e565b601f0160209004905f5260205f209081019061308d91906131b2565b5b50565b6040518060e001604052805f60028111156130af576130ae614623565b5b81526020015f60028111156130c7576130c6614623565b5b81526020015f5f8111156130de576130dd614623565b5b8152602001606081526020016060815260200160608152602001606081525090565b828054828255905f5260205f20908101928215613146579160200282015b828111156131455782518290816131359190613f84565b509160200191906001019061311e565b5b509050613153919061318f565b5090565b604051806040016040528061316a613176565b81526020015f81525090565b6040518060400160405280606081526020015f81525090565b5b808211156131ae575f81816131a59190613054565b50600101613190565b5090565b5b808211156131c9575f815f9055506001016131b3565b5090565b5f67ffffffffffffffff82169050919050565b6131e9816131cd565b82525050565b5f6020820190506132025f8301846131e0565b92915050565b5f604051905090565b5f5ffd5b5f5ffd5b5f819050919050565b61322b81613219565b8114613235575f5ffd5b50565b5f8135905061324681613222565b92915050565b5f5ffd5b5f5ffd5b5f601f19601f8301169050919050565b7f4e487b71000000000000000000000000000000000000000000000000000000005f52604160045260245ffd5b61329a82613254565b810181811067ffffffffffffffff821117156132b9576132b8613264565b5b80604052505050565b5f6132cb613208565b90506132d78282613291565b919050565b5f67ffffffffffffffff8211156132f6576132f5613264565b5b6132ff82613254565b9050602081019050919050565b828183375f83830152505050565b5f61332c613327846132dc565b6132c2565b90508281526020810184848401111561334857613347613250565b5b61335384828561330c565b509392505050565b5f82601f83011261336f5761336e61324c565b5b813561337f84826020860161331a565b91505092915050565b5f5f5f6060848603121561339f5761339e613211565b5b5f6133ac86828701613238565b935050602084013567ffffffffffffffff8111156133cd576133cc613215565b5b6133d98682870161335b565b925050604084013567ffffffffffffffff8111156133fa576133f9613215565b5b6134068682870161335b565b9150509250925092565b5f73ffffffffffffffffffffffffffffffffffffffff82169050919050565b5f61343982613410565b9050919050565b6134498161342f565b8114613453575f5ffd5b50565b5f8135905061346481613440565b92915050565b5f819050919050565b61347c8161346a565b8114613486575f5ffd5b50565b5f8135905061349781613473565b92915050565b5f5f5f5f608085870312156134b5576134b4613211565b5b5f6134c287828801613456565b94505060206134d387828801613456565b93505060406134e487828801613489565b925050606085013567ffffffffffffffff81111561350557613504613215565b5b6135118782880161335b565b91505092959194509250565b5f7fffffffff0000000000000000000000000000000000000000000000000000000082169050919050565b6135518161351d565b82525050565b5f60208201905061356a5f830184613548565b92915050565b5f5ffd5b5f5ffd5b5f5f83601f84011261358d5761358c61324c565b5b8235905067ffffffffffffffff8111156135aa576135a9613570565b5b6020830191508360018202830111156135c6576135c5613574565b5b9250929050565b5f5f5f604084860312156135e4576135e3613211565b5b5f84013567ffffffffffffffff81111561360157613600613215565b5b61360d86828701613578565b9350935050602061362086828701613456565b9150509250925092565b6136338161346a565b82525050565b5f60208201905061364c5f83018461362a565b92915050565b5f67ffffffffffffffff82111561366c5761366b613264565b5b61367582613254565b9050602081019050919050565b5f61369461368f84613652565b6132c2565b9050828152602081018484840111156136b0576136af613250565b5b6136bb84828561330c565b509392505050565b5f82601f8301126136d7576136d661324c565b5b81356136e7848260208601613682565b91505092915050565b5f6020828403121561370557613704613211565b5b5f82013567ffffffffffffffff81111561372257613721613215565b5b61372e848285016136c3565b91505092915050565b5f8115159050919050565b61374b81613737565b82525050565b5f6020820190506137645f830184613742565b92915050565b613773816131cd565b811461377d575f5ffd5b50565b5f8135905061378e8161376a565b92915050565b5f63ffffffff82169050919050565b6137ac81613794565b81146137b6575f5ffd5b50565b5f813590506137c7816137a3565b92915050565b5f5f5f606084860312156137e4576137e3613211565b5b5f6137f186828701613238565b935050602061380286828701613780565b9250506040613813868287016137b9565b9150509250925092565b5f5ffd5b5f61010082840312156138375761383661381d565b5b81905092915050565b5f5f6040838503121561385657613855613211565b5b5f83013567ffffffffffffffff81111561387357613872613215565b5b61387f85828601613821565b925050602083013567ffffffffffffffff8111156138a05761389f613215565b5b6138ac8582860161335b565b9150509250929050565b5f81519050919050565b5f82825260208201905092915050565b8281835e5f83830152505050565b5f6138e8826138b6565b6138f281856138c0565b93506139028185602086016138d0565b61390b81613254565b840191505092915050565b5f6040820190506139295f830185613742565b818103602083015261393b81846138de565b90509392505050565b5f5f83601f8401126139595761395861324c565b5b8235905067ffffffffffffffff81111561397657613975613570565b5b60208301915083600182028301111561399257613991613574565b5b9250929050565b5f5f602083850312156139af576139ae613211565b5b5f83013567ffffffffffffffff8111156139cc576139cb613215565b5b6139d885828601613944565b92509250509250929050565b5f5f602083850312156139fa576139f9613211565b5b5f83013567ffffffffffffffff811115613a1757613a16613215565b5b613a2385828601613578565b92509250509250929050565b613a388161342f565b82525050565b5f606082019050613a515f830186613a2f565b613a5e602083018561362a565b613a6b6040830184613742565b949350505050565b5f602082019050613a865f830184613a2f565b92915050565b5f819050919050565b5f613aaf613aaa613aa584613410565b613a8c565b613410565b9050919050565b5f613ac082613a95565b9050919050565b5f613ad182613ab6565b9050919050565b613ae181613ac7565b82525050565b5f602082019050613afa5f830184613ad8565b92915050565b613b0981613219565b82525050565b5f602082019050613b225f830184613b00565b92915050565b5f60208284031215613b3d57613b3c613211565b5b5f613b4a84828501613238565b91505092915050565b5f81519050919050565b5f82825260208201905092915050565b5f613b7782613b53565b613b818185613b5d565b9350613b918185602086016138d0565b613b9a81613254565b840191505092915050565b5f6040820190508181035f830152613bbd8185613b6d565b9050613bcc6020830184613a2f565b9392505050565b5f608082019050613be65f830187613a2f565b8181036020830152613bf88186613b6d565b9050613c07604083018561362a565b613c146060830184613742565b95945050505050565b5f60208284031215613c3257613c31613211565b5b5f613c3f84828501613456565b91505092915050565b613c5181613794565b82525050565b5f602082019050613c6a5f830184613c48565b92915050565b5f606082019050613c835f830186613a2f565b613c906020830185613a2f565b613c9d604083018461362a565b949350505050565b5f5ffd5b5f5ffd5b5f5ffd5b5f5f83356001602003843603038112613ccd57613ccc613ca5565b5b80840192508235915067ffffffffffffffff821115613cef57613cee613ca9565b5b602083019250602082023603831315613d0b57613d0a613cad565b5b509250929050565b7f4e487b71000000000000000000000000000000000000000000000000000000005f52603260045260245ffd5b7f4e487b71000000000000000000000000000000000000000000000000000000005f52602260045260245ffd5b5f6002820490506001821680613d8457607f821691505b602082108103613d9757613d96613d40565b5b50919050565b5f81905092915050565b5f613db182613b53565b613dbb8185613d9d565b9350613dcb8185602086016138d0565b80840191505092915050565b5f613de28284613da7565b915081905092915050565b5f819050815f5260205f209050919050565b5f6020601f8301049050919050565b5f82821b905092915050565b5f60088302613e497fffffffffffffffffffffffffffffffffffffffffffffffffffffffffffffffff82613e0e565b613e538683613e0e565b95508019841693508086168417925050509392505050565b5f613e85613e80613e7b8461346a565b613a8c565b61346a565b9050919050565b5f819050919050565b613e9e83613e6b565b613eb2613eaa82613e8c565b848454613e1a565b825550505050565b5f5f905090565b613ec9613eba565b613ed4818484613e95565b505050565b5b81811015613ef757613eec5f82613ec1565b600181019050613eda565b5050565b601f821115613f3c57613f0d81613ded565b613f1684613dff565b81016020851015613f25578190505b613f39613f3185613dff565b830182613ed9565b50505b505050565b5f82821c905092915050565b5f613f5c5f1984600802613f41565b1980831691505092915050565b5f613f748383613f4d565b9150826002028217905092915050565b613f8d82613b53565b67ffffffffffffffff811115613fa657613fa5613264565b5b613fb08254613d6d565b613fbb828285613efb565b5f60209050601f831160018114613fec575f8415613fda578287015190505b613fe48582613f69565b86555061404b565b601f198416613ffa86613ded565b5f5b8281101561402157848901518255600182019150602085019450602081019050613ffc565b8683101561403e578489015161403a601f891682613f4d565b8355505b6001600288020188555050505b505050505050565b5f61405e8385613b5d565b935061406b83858461330c565b61407483613254565b840190509392505050565b5f6060820190508181035f830152614098818688614053565b90506140a76020830185613a2f565b6140b46040830184613b00565b95945050505050565b5f815190506140cb81613473565b92915050565b5f602082840312156140e6576140e5613211565b5b5f6140f3848285016140bd565b91505092915050565b7f4e487b71000000000000000000000000000000000000000000000000000000005f52601160045260245ffd5b5f6141338261346a565b91507fffffffffffffffffffffffffffffffffffffffffffffffffffffffffffffffff8203614165576141646140fc565b5b600182019050919050565b5f61417a8261346a565b91506141858361346a565b925082820390508181111561419d5761419c6140fc565b5b92915050565b5f6141ad8261346a565b91506141b88361346a565b92508282019050808211156141d0576141cf6140fc565b5b92915050565b5f815190506141e481613222565b92915050565b5f602082840312156141ff576141fe613211565b5b5f61420c848285016141d6565b91505092915050565b5f6040820190506142285f830185613b00565b818103602083015261423a8184613b6d565b90509392505050565b5f61424d8261346a565b91505f820361425f5761425e6140fc565b5b600182039050919050565b5f81519050919050565b5f82825260208201905092915050565b5f819050602082019050919050565b5f82825260208201905092915050565b5f6142ad826138b6565b6142b78185614293565b93506142c78185602086016138d0565b6142d081613254565b840191505092915050565b5f6142e683836142a3565b905092915050565b5f602082019050919050565b5f6143048261426a565b61430e8185614274565b93508360208202850161432085614284565b805f5b8581101561435b578484038952815161433c85826142db565b9450614347836142ee565b925060208a01995050600181019050614323565b50829750879550505050505092915050565b5f6080820190506143805f830187613b00565b81810360208301526143928186613b6d565b90506143a16040830185613a2f565b81810360608301526143b381846142fa565b905095945050505050565b5f8160601b9050919050565b5f6143d4826143be565b9050919050565b5f6143e5826143ca565b9050919050565b6143fd6143f88261342f565b6143db565b82525050565b5f61440e82846143ec565b60148201915081905092915050565b5f819050919050565b5f61444061443b6144368461441d565b613a8c565b61346a565b9050919050565b61445081614426565b82525050565b5f6060820190506144695f830186613b00565b6144766020830185614447565b818103604083015261448881846138de565b9050949350505050565b5f6060820190506144a55f830186613b00565b6144b2602083018561362a565b81810360408301526144c481846138de565b9050949350505050565b5f6144d98285613da7565b91506144e58284613da7565b91508190509392505050565b7f61766174617200000000000000000000000000000000000000000000000000005f82015250565b5f614525600683613b5d565b9150614530826144f1565b602082019050919050565b5f60608201905061454e5f830185613b00565b818103602083015261455f81614519565b905081810360408301526145738184613b6d565b90509392505050565b5f8151905061458a81613440565b92915050565b5f602082840312156145a5576145a4613211565b5b5f6145b28482850161457c565b91505092915050565b5f6145c58261346a565b91506145d08361346a565b92508282026145de8161346a565b915082820484148315176145f5576145f46140fc565b5b5092915050565b5f60408201905061460f5f83018561362a565b61461c602083018461362a565b9392505050565b7f4e487b71000000000000000000000000000000000000000000000000000000005f52602160045260245ffd5b5f61ffff82169050919050565b61466681614650565b82525050565b5f60a08201905061467f5f8301886131e0565b818103602083015261469181876138de565b90506146a0604083018661465d565b6146ad6060830185613c48565b6146ba6080830184613b00565b9695505050505050565b7f4e487b71000000000000000000000000000000000000000000000000000000005f52601260045260245ffd5b5f6146fb8261346a565b91506147068361346a565b925082614716576147156146c4565b5b828206905092915050565b5f8160011c9050919050565b5f5f8291508390505b600185111561477657808604811115614752576147516140fc565b5b60018516156147615780820291505b808102905061476f85614721565b9450614736565b94509492505050565b5f8261478e5760019050614849565b8161479b575f9050614849565b81600181146147b157600281146147bb576147ea565b6001915050614849565b60ff8411156147cd576147cc6140fc565b5b8360020a9150848211156147e4576147e36140fc565b5b50614849565b5060208310610133831016604e8410600b841016171561481f5782820a90508381111561481a576148196140fc565b5b614849565b61482c848484600161472d565b92509050818404811115614843576148426140fc565b5b81810290505b9392505050565b5f61485a8261346a565b91506148658361346a565b92506148927fffffffffffffffffffffffffffffffffffffffffffffffffffffffffffffffff848461477f565b90509291505056fe636f6e737420646f6d61696e203d20617267735b305d3b636f6e73742061646472657373203d20617267735b315d3b636f6e7374206865616452657175657374203d2061776169742046756e6374696f6e732e6d616b654874747052657175657374287b202075726c3a206068747470733a2f2f247b646f6d61696e7d602c20206d6574686f643a202748454144272c2020726573706f6e7365547970653a202774657874277d293b636f6e737420726573706f6e7365203d2061776169742068656164526571756573743b69662028726573706f6e73652e6572726f7229207b20207468726f77204572726f72282752657175657374206661696c656427293b7d636f6e737420726573706f6e736541646472657373203d20726573706f6e73652e686561646572735b27782d7061796d656e742d61646472657373275d3b6966202821726573706f6e73654164647265737329207b202072657475726e2046756e6374696f6e732e656e636f646555696e743235362830293b7d69662028726573706f6e7365416464726573732e746f4c6f77657243617365282920213d3d20616464726573732e746f4c6f77657243617365282929207b202072657475726e2046756e6374696f6e732e656e636f646555696e743235362830293b7d72657475726e2046756e6374696f6e732e656e636f646555696e743235362831293ba26469706673582212201ef117c763323a39f813aa3b7683ba490ed9097112f3cdbf8d0c32de07d6ee1664736f6c634300081e0033",
    "linkReferences": {}
  },
  "methodIdentifiers": {
    "automationRegistry()": "5dc228a0",
    "available(string)": "aeb8ce9b",
    "checkLog((uint256,uint256,bytes32,uint256,bytes32,address,bytes32[],bytes),bytes)": "40691db4",
    "coinType()": "1fe93ea8",
    "domainVerified(string)": "26031624",
    "donId()": "8dbe7b9d",
    "gasLimit()": "f68016b7",
    "getRegistration(string)": "483b812c",
    "handleOracleFulfillment(bytes32,bytes,bytes)": "0ca76175",
    "onERC721Received(address,address,uint256,bytes)": "150b7a02",
    "owner()": "8da5cb5b",
    "pendingRegistrations(bytes32)": "c390d864",
    "performUpkeep(bytes)": "4585e33b",
    "registrations(bytes32)": "da7c6a42",
    "registry()": "7b103999",
    "renounceOwnership()": "715018a6",
    "requestRegistration(string)": "a00977bf",
    "subscriptionId()": "09c1ba2e",
    "transferDomain(string,address)": "19fbe87e",
    "transferOwnership(address)": "f2fde38b",
    "updateChainlinkConfig(bytes32,uint64,uint32)": "393f596e"
  },
  "id": 54
}